:020000040000FA
:100000000C9462000C948A000C948A000C948A0070
:100010000C948A000C948A000C948A000C948A0038
:100020000C948A000C948A000C948A000C948A0028
:100030000C948A000C948A000C948A000C948A0018
:100040000C948F060C948A000C94FF060C94D9062D
:100050000C948A000C948A000C948A000C948A00F8
:100060000C948A000C948A000000000024002700F1
:100070002A0000000000250028002B0000000000DE
:1000800023002600290004040404040404040202DA
:100090000202020203030303030301020408102007
:1000A0004080010204081020010204081020000012
:1000B0000008000201000003040700000000000027
:1000C0000000760711241FBECFEFD8E0DEBFCDBF02
:1000D00011E0A0E0B1E0EEEDF9E102C005900D9273
:1000E000AE38B107D9F722E0AEE8B1E001C01D9209
:1000F000A938B207E1F710E0C2E6D0E004C02197CA
:10010000FE010E94E70CC136D107C9F70E94C00763
:100110000C94ED0C0C940000833081F028F48130B5
:1001200099F08230A9F008958730A9F08830C9F09D
:100130008430B1F4809180008F7D03C08091800075
:100140008F7780938000089584B58F7784BD08955C
:1001500084B58F7DFBCF8091B0008F778093B00006
:1001600008958091B0008F7DF9CFCF93DF93282F32
:1001700030E0F901E255FF4F8491F901E656FF4F57
:10018000D491F901EA57FF4FC491CC23A1F081111A
:100190000E948C00EC2FF0E0EE0FFF1FE458FF4FA1
:1001A000A591B491EC91ED2381E090E009F480E019
:1001B000DF91CF91089580E090E0FACF1F93CF9325
:1001C000DF93282F30E0F901E255FF4F8491F901C8
:1001D000E656FF4FD491F901EA57FF4FC491CC2363
:1001E000A9F0162F81110E948C00EC2FF0E0EE0F89
:1001F000FF1FEE58FF4FA591B4918FB7F894EC9183
:10020000111108C0D095DE23DC938FBFDF91CF9111
:100210001F910895DE2BF8CFCF93DF9390E0FC0180
:10022000E656FF4F24918A579F4FFC018491882303
:10023000D1F090E0880F991FFC01E859FF4FA5917C
:10024000B491FC01EE58FF4FC591D49161110EC0DD
:100250009FB7F8948C91E22FE0958E238C932881A0
:10026000E223E8839FBFDF91CF9108958FB7F89481
:10027000EC91E22BEC938FBFF6CF1F93CF93DF93DC
:10028000182FEB0161E00E940C01209739F460E027
:10029000812FDF91CF911F910C94DE00CF3FD105CC
:1002A00011F461E0F5CFE12FF0E0E255FF4FE4916A
:1002B000E33031F140F4E130B1F0E230E1F0C03848
:1002C000D1057CF7E4CFE73029F1E83059F1E4308B
:1002D000B1F780918000806280938000D0938B0082
:1002E000C0938A0004C084B5806884BDC7BDDF9117
:1002F000CF911F91089584B5806284BDC8BDF7CFAA
:1003000080918000806880938000D0938900C093A2
:100310008800EDCF8091B00080688093B000C093DA
:10032000B300E5CF8091B00080628093B000C093AD
:10033000B400DDCF3FB7F894809193019091940180
:10034000A0919501B091960126B5A89B05C02F3FBD
:1003500019F00196A11DB11D3FBFBA2FA92F982FEB
:100360008827BC01CD01620F711D811D911D42E0E6
:10037000660F771F881F991F4A95D1F708958F92AE
:100380009F92AF92BF92CF92DF92EF92FF926B015A
:100390007C010E949A014B015C01C114D104E1046B
:1003A000F104B9F00E949A01681979098A099B0938
:1003B000683E73408105910580F321E0C21AD1089F
:1003C000E108F10888EE880E83E0981EA11CB11C9C
:1003D000E4CFFF90EF90DF90CF90BF90AF909F90D1
:1003E0008F9008954F925F926F927F928F929F921B
:1003F000AF92BF92CF92DF92EF92FF920F931F9333
:10040000CF93DF932FB7F894809197019091980143
:10041000A0919901B0919A012FBF4091B0015091E4
:10042000B1016091B2017091B3018C019D01041B77
:10043000150B260B370B4091AC015091AD014130AB
:10044000510509F078C047EE53E060E070E0041712
:1004500015072607370708F45DC08093B001909315
:10046000B101A093B201B093B30180E090E0A0ECA1
:10047000BFE78093A3019093A401A093A501B0933B
:10048000A6018093A7019093A801A093A901B0931E
:10049000AA0160E08091AB010E94DE0061E08091E2
:1004A000AB010E940C018091AC019091AD010197CC
:1004B00009F046C062E170E080E090E00E94BF0178
:1004C00060E08091AB010E940C0161E08091AB0182
:1004D0000E94DE00F8943DEFD32ED0E0C0E010E0A3
:1004E00000E0F12CE12C0E949A01862E2D2D217026
:1004F000922EA22E220FBB080E949A01C62EC81867
:100500008AE58C1528F581E090E09093AF01809307
:10051000AE017894DF91CF911F910F91FF90EF90F2
:10052000DF90CF90BF90AF909F908F907F906F9013
:100530005F904F9008954FEC57E060E070E087CFF8
:1005400062E070E080E090E0B9CF8701D394CBCF38
:100550008091AB010E94B5008A159B0569F2D7FC1A
:100560000FC0992039F0EE0CFF1C2EE12C1510F471
:100570006894E0F88FE1D81641F32FE3D216B1F07A
:100580008FE4D812E3CF7894A12EBB24CD2EDD24A6
:100590008C2F800F8A0D8C0D8E151F0459F082E070
:1005A00090E09093AF018093AE01B4CFE701F12CBE
:1005B000E12CCCCF8091AC019091AD01019709F075
:1005C0004CC01127B80190E080E00E94E50B2DECB3
:1005D0003CEC4CEC5DE30E94730C2B013C01B5013B
:1005E00090E080E00E94E50B9B01AC01C301B201E9
:1005F0000E94430B6093A7017093A8018093A90107
:100600009093AA01BE016F77772790E080E00E9467
:10061000E50B2DEC3CEC4CEC5DE30E94730C4B01C4
:100620005C01B60190E080E00E94E50B9B01AC010B
:10063000C501B4010E94430BC7FD0DC06093A30127
:100640007093A4018093A5019093A6011092AF012D
:100650001092AE015FCF9058F1CFB80190E080E0EA
:100660000E94E50B2DEC3CEC4CEC5DE30E94730C1E
:100670006093A7017093A8018093A9019093AA01A8
:10068000D7FF04C0DF77D195C195D109BE01DD0F39
:10069000880B990B0E94E70B2DEC3CEC4CEC5DE3D6
:1006A0000E94730CCBCFAF92BF92CF92DF92EF92AA
:1006B000FF920F931F93CF93DF936C017B018B010C
:1006C000040F151FEB015E01AE18BF08C017D1075C
:1006D00059F06991D601ED91FC910190F081E02DE6
:1006E000C6010995892B79F7C501DF91CF911F913B
:1006F0000F91FF90EF90DF90CF90BF90AF90089553
:10070000FC01538D448D252F30E0842F90E0821B17
:10071000930B541710F0CF96089501970895FC019C
:10072000918D828D981761F0A28DAE0FBF2FB11DF4
:100730005D968C91928D9F5F9F73928F90E008954C
:100740008FEF9FEF0895FC01918D828D981731F006
:10075000828DE80FF11D858D90E008958FEF9FEF5A
:100760000895FC01918D228D892F90E0805C9F4F30
:10077000821B91098F739927089584ED91E00E945F
:10078000B10321E0892B09F420E0822F089580E055
:1007900090E0892B29F00E94BD0381110C94000088
:1007A0000895FC01A48DA80FB92FB11DA35ABF4F06
:1007B0002C91848D90E001968F739927848FA68960
:1007C000B7892C93A089B1898C91837080648C93B4
:1007D000938D848D981306C00288F389E02D808163
:1007E0008F7D80830895EF92FF920F931F93CF9395
:1007F000DF93EC0181E0888F9B8D8C8D98131AC05C
:10080000E889F989808185FF15C09FB7F894EE8942
:10081000FF896083E889F98980818370806480839F
:100820009FBF81E090E0DF91CF911F910F91FF90EA
:10083000EF900895F62E0B8D10E00F5F1F4F0F7392
:100840001127E02E8C8D8E110CC00FB607FCFACF4D
:10085000E889F989808185FFF5CFCE010E94D10317
:10086000F1CFEB8DEC0FFD2FF11DE35AFF4FF0821E
:100870009FB7F8940B8FEA89FB8980818062CFCF84
:10088000CF93DF93EC01888D8823B9F0AA89BB89C7
:10089000E889F9898C9185FD03C0808186FD0DC0B2
:1008A0000FB607FCF7CF8C9185FFF2CF808185FFD3
:1008B000EDCFCE010E94D103E9CFDF91CF91089512
:1008C000CF92DF92EF92FF92CF93DF9384EBC82E0B
:1008D000D12CE12CF12CC0918E01D0918F01C53B20
:1008E000D105F4F420E437E0DE010E94E00CA7011A
:1008F00096010E94F20ACA01B901605E7D4F8F4FD6
:100900009F4F8BE00E943D016FE070E080E090E03F
:100910000E94BF012196D0938F01C0938E01DBCF3F
:1009200084EB90E0DF91CF91FF90EF90DF90CF903C
:100930000895089590E080E00895FC010190002062
:10094000E9F73197AF01481B590BBC0181E792E0F1
:100950000C945303CF93DF93EC0160E08E810E94EF
:10096000DE0061E08E810E94DE0060E08E810E94E8
:10097000DE008BE891E00197F1F7DF91CF910895C8
:10098000CF92DF92EF92FF920F931F93CF93DF935B
:100990006C017C0187E0E80EF11CD0E0C0E0062F7E
:1009A00010E0B8010C2E02C0759567950A94E2F725
:1009B0006170F70181917F010E94DE002196C430B1
:1009C000D10579F7C601DF91CF911F910F91FF906B
:1009D000EF90DF90CF900C94AA04CF92DF92EF9229
:1009E000FF920F931F93CF93DF93EC01F62E642FAA
:1009F0008C810E94DE008D818F3F19F060E00E94A3
:100A0000DE000F2D10E08F8584FF25C06E0187E08A
:100A1000C80ED11CF12CE12CB8010E2C02C075952A
:100A200067950A94E2F76170F60181916F010E9467
:100A3000DE00FFEFEF1AFF0A88E0E816F10461F725
:100A4000CE01DF91CF911F910F91FF90EF90DF903A
:100A5000CF900C94AA04B80184E0759567958A95A7
:100A6000E1F7CE010E94C0046F2DCE01DF91CF913E
:100A70001F910F91FF90EF90DF90CF900C94C004E6
:100A800040E0682F81E792E00C94ED04909184029D
:100A9000691710F06FEF690FE62FF0E0EF58FD4F88
:100AA0009489890F80680C944005CF93DF9382303E
:100AB00029F4909180029860909380028093840240
:100AC0001092850280E48093860280E18093870201
:100AD00080E58093880261E0809175020E940C019C
:100AE000809176028F3F19F061E00E940C0161E075
:100AF000809177020E940C01C1E7D2E09E0121574C
:100B000032408091800284FD0BC084E090E0219609
:100B10002817390744F461E08E810E940C01EECF62
:100B200088E090E0F4CF8BE39DE00197F1F760E07F
:100B3000809175020E94DE0060E0809177020E9441
:100B4000DE00809176028F3F19F060E00E94DE00A7
:100B50008091800284FD39C063E081E792E00E94C9
:100B6000C004CBE4D6E4CE010197F1F763E081E75E
:100B700092E00E94C0042197F1F763E081E792E0E0
:100B80000E94C00483E592E00197F1F762E081E7FB
:100B900092E00E94C0048091800280620E94400521
:100BA00084E0809381028CE00E94400581E00E94F5
:100BB00040058BE39FE10197F1F782E08093820289
:100BC00086E0DF91CF910C94400580620E94400541
:100BD0008BE496E40197F1F78091800280620E9495
:100BE000400583E592E00197F1F7809180028062F1
:100BF0000E944005D0CF41E00E94ED0481E090E0EA
:100C000008950F931F93CF93DF938B0128E0829F6A
:100C1000C001112480640E944005E801085F1F4F55
:100C2000699181E792E00E94FB05C017D107C1F7E7
:100C3000DF91CF911F910F910895CF92DF92EF92A4
:100C4000FF920F931F93CF93DF93CDB7DEB7A1979A
:100C50000FB6F894DEBF0FBECDBF6B017C01F7FE6F
:100C60003CC041E06DE281E792E00E94ED04222762
:100C70003327A9012C193D094E095F0919A28E01DC
:100C80000F5D1F4F9AE0C92ED12CE12CF12CCA0127
:100C9000B901A70196010E94110B605DF8016293F2
:100CA0008F01211531054105510589F790E080E05C
:100CB000309719F0CF010E949D040196A1960FB6BE
:100CC000F894DEBF0FBECDBFDF91CF911F910F9182
:100CD000FF90EF90DF90CF900895AC019B0119A297
:100CE0008E010F5D1F4F8AE0C82ED12CE12CF12C14
:100CF000CA01B901A70196010E94110B605DF801BC
:100D000062938F01211531054105510589F790E066
:100D100080E0309799F2CF010E949D04CFCF1F92BF
:100D20000F920FB60F9211242F933F938F939F939F
:100D3000AF93BF938091970190919801A0919901F1
:100D4000B0919A013091920123E0230F2D3758F58D
:100D50000196A11DB11D209392018093970190935C
:100D60009801A0939901B0939A0180919301909179
:100D70009401A0919501B09196010196A11DB11D1C
:100D80008093930190939401A0939501B093960161
:100D9000BF91AF919F918F913F912F910F900FBE77
:100DA0000F901F90189526E8230F0296A11DB11DE4
:100DB000D2CF1F920F920FB60F9211242F933F9311
:100DC0004F935F936F937F938F939F93AF93BF9353
:100DD000EF93FF9384ED91E00E94D103FF91EF9197
:100DE000BF91AF919F918F917F916F915F914F9143
:100DF0003F912F910F900FBE0F901F9018951F924B
:100E00000F920FB60F9211242F938F939F93EF930E
:100E1000FF93E091E401F091E5018081E091EA0126
:100E2000F091EB0182FD1BC090818091ED018F5FFD
:100E30008F732091EE01821741F0E091ED01F0E017
:100E4000EC52FE4F958F8093ED01FF91EF919F91B2
:100E50008F912F910F900FBE0F901F90189580814A
:100E6000F4CFCF92DF92EF92FF920F931F93E82F70
:100E7000F92F05C0015011092109310961F1908153
:100E800096239417B9F305C00150110921093109BE
:100E900011F1908196239413F7CFC12CD12CE12C22
:100EA000F12C0AC08FEFC81AD80AE80AF80A0C1504
:100EB0001D052E053F0579F080818623841791F367
:100EC0006C2D7D2D8E2D9F2D1F910F91FF90EF90FA
:100ED000DF90CF90089560E070E080E090E01F9197
:100EE0000F91FF90EF90DF90CF900895E4EDF1E047
:100EF0001382128288EE93E0A0E0B0E084839583B1
:100F0000A683B78384E491E09183808385EC90E0AD
:100F10009587848784EC90E09787868780EC90E0C3
:100F2000918B808B81EC90E0938B828B82EC90E0B4
:100F3000958B848B86EC90E0978B868B118E128E2E
:100F4000138E148EE1E7F2E01382128286E591E0BF
:100F50009183808387E084838FEF858386E0868317
:100F600085E0878384E0808783E0818782E08287D1
:100F70001386148615861686178681E00C9455050F
:100F8000CF93DF93CDB7DEB728970FB6F894DEBFC7
:100F90000FBECDBF789484B5826084BD84B5816076
:100FA00084BD85B5826085BD85B5816085BD809134
:100FB0006E00816080936E001092810080918100AC
:100FC00082608093810080918100816080938100A4
:100FD000809180008160809380008091B100846066
:100FE0008093B1008091B00081608093B0008091C7
:100FF0007A00846080937A0080917A008260809386
:101000007A0080917A00816080937A0080917A00E2
:10101000806880937A001092C1008AE08093AB01CF
:1010200081E090E09093AD018093AC012FB7F894EC
:101030008091970190919801A0919901B0919A01A6
:101040002FBF885B9B40A109B1098093B0019093A9
:10105000B101A093B201B093B3018CE59FE8A2EC7B
:10106000BDEB8093B4019093B501A093B601B0930A
:10107000B70186E696E6A3E0B2E48093B8019093C8
:10108000B901A093BA01B093BB0180E090E0A2E661
:10109000B2EC8093CC019093CD01A093CE01B0939C
:1010A000CF0183E393EDA8E7B5E48093D00190935B
:1010B000D101A093D201B093D3018CE092E0ABE2D6
:1010C000BDEB8093BC019093BD01A093BE01B09392
:1010D000BF018BE390EDABEBB1E48093C001909343
:1010E000C101A093C201B093C3018AE999E9ABE9B8
:1010F000B2EC8093C4019093C501A093C601B09354
:10110000C70180E090ECA3E1B5E48093C80190931F
:10111000C901A093CA01B093CB0160E08EE00E94A8
:101120000C0161E088E00E940C0160E089E00E940F
:101130000C0161E08BE00E940C0160E082E00E9403
:101140000C0161E08BE00E940C0161E080E10E94F3
:101150000C0161E081E10E940C0182E00E945505D2
:1011600060E071E080E00E94010668E371E081E0E8
:101170000E94010660E371E082E00E94010668E2DD
:1011800071E083E00E94010660E271E084E00E9469
:10119000010668E171E085E00E94010660E171E00E
:1011A00086E00E94010668E071E087E00E94010687
:1011B00061E08FE00E940C018FEF898310E000E076
:1011C0009BE3E92E9FE1F92E0B8303301105F4F028
:1011D00060E0898182500E94460561E081E792E0EB
:1011E0000E94FB0560E0898181500E94460562E013
:1011F00081E792E00E94FB0560E089810E9446053C
:1012000063E081E792E00E94FB0506C00230110511
:1012100049F30115110581F760E08B810E944605B5
:1012200064E081E792E00E94FB058EE591E00E9478
:101230009D0403301105F4F061E0898182500E9421
:10124000460565E081E792E00E94FB0561E0898147
:1012500081500E94460566E081E792E00E94FB050E
:1012600061E089810E94460567E081E792E00E9483
:10127000FB0506C00230110549F30115110581F780
:1012800060E971E080E090E00E94BF0181E00E948F
:101290004005C7010197F1F70F5F1F4F99819F5FCD
:1012A0009983923109F090CFE091E401F091E5014A
:1012B00082E08083E091E001F091E1011082E09111
:1012C000E201F091E3018FEC80831092EC01E09158
:1012D000E801F091E90186E08083E091E601F09178
:1012E000E701808180618083E091E601F091E70170
:1012F000808188608083E091E601F091E701808140
:1013000080688083E091E601F091E70180818F7D24
:10131000808360E088E00E94DE0064E070E080E0AE
:1013200090E00E94BF0161E088E00E94DE006AE078
:1013300070E080E090E00E94BF0160E088E00E94E1
:10134000DE00E3EAF0E06491EFE8F0E08491E82F5A
:10135000F0E0EE0FFF1FE458FF4F8591949100E4F9
:1013600012E42FE030E0462F0E943107611571052D
:101370008105910529F06F5F7F4F8F4F9F4F9F70C1
:101380000E94E70B2DEB37E346E855E30E94730C10
:1013900020E030E040E05FE30E94730C20E03CEF8F
:1013A00045E057E40E94730C0E94AF0B2B017E8333
:1013B0006D83F0E4F0937C0080917A0080648093E8
:1013C0007A0080917A0086FDFCCFA0917800B091E0
:1013D000790024E630E00E94E00C2FEF33E040E09B
:1013E00050E00E94F20A49015A013C832B830E947B
:1013F000F2018091AE019091AF01019711F40E942A
:10140000F2016091A3017091A4018091A5019091D6
:10141000A6010E94AF0B6B017A8369838BE00E9467
:10142000B5001C0182E00E94B5008C0180918E0104
:1014300090918F0198878F8360E080E00E9446053D
:101440008BE691E00E949D0461E080E00E944605E9
:101450008CE791E00E949D0460E081E792E00E94A9
:10146000FB058BE891E00E949D0461E080E00E9412
:10147000460587E891E00E949D0461E080E00E94BB
:101480004605B201550C880B990B0E941D0661E0C0
:1014900086E00E94460587E891E00E949D0461E095
:1014A00086E00E944605C501B4010E941D0661E068
:1014B0008CE00E94460588E891E00E949D0461E06E
:1014C0008CE00E944605B601DD0C880B990B0E944A
:1014D0001D0668EE73E080E090E00E94BF01EB81A2
:1014E000FC81F2974CF48D819E810F972CF46FEF65
:1014F00070E080E10E943D01E981FA817F97F4F17B
:101500002A94232861F48091900190919101843074
:1015100091052CF4019690939101809390016FEFC7
:1015200070E08FE00E943D010130110531F48F81A0
:101530009885892B11F40E9460048091900190910C
:101540009101049729F46FEF70E081E10E943D0161
:101550000130110531F4EF81F885EF2BA1F40E94E1
:10156000600480E090E0892B09F4D3CE0E94BD0393
:10157000882309F4CECE0E940000CBCE10929101B8
:1015800010929001E5CFEF81F885E43BF10549F732
:1015900080918E0190918F019A83898397FDE1CF8D
:1015A00020E437E0DC010E94E00C24EB30E040E076
:1015B00050E00E94F20ACA01B901605E7D4F8F4F70
:1015C0009F4F8BE00E943D016FE070E080E090E073
:1015D0000E94BF01E981FA813197F0938F01E09376
:1015E0008E01D6CF052E97FB1EF400940E94090BA6
:1015F00057FD07D00E94110B07FC03D04EF40C944A
:10160000090B50954095309521953F4F4F4F5F4FB7
:10161000089590958095709561957F4F8F4F9F4F5E
:101620000895A1E21A2EAA1BBB1BFD010DC0AA1F23
:10163000BB1FEE1FFF1FA217B307E407F50720F03B
:10164000A21BB30BE40BF50B661F771F881F991FB6
:101650001A9469F760957095809590959B01AC01FF
:10166000BD01CF010895A29FB001B39FC001A39F08
:10167000700D811D1124911DB29F700D811D1124CB
:10168000911D08955058BB27AA270E945A0B0C940D
:10169000390C0E942B0C38F00E94320C20F039F4E7
:1016A0009F3F19F426F40C94280C0EF4E095E7FB08
:1016B0000C94220CE92F0E944A0C58F3BA176207C7
:1016C00073078407950720F079F4A6F50C946C0C49
:1016D0000EF4E0950B2EBA2FA02D0B01B90190014D
:1016E0000C01CA01A0011124FF27591B99F0593F91
:1016F00050F4503E68F11A16F040A22F232F342FD9
:101700004427585FF3CF469537952795A795F04026
:101710005395C9F77EF41F16BA0B620B730B840B3B
:10172000BAF09150A1F0FF0FBB1F661F771F881FF3
:10173000C2F70EC0BA0F621F731F841F48F487954B
:1017400077956795B795F7959E3F08F0B0CF93953D
:10175000880F08F09927EE0F9795879508950E94B6
:10176000B60B6894B1110C946D0C08950E94520C44
:1017700088F09F5798F0B92F9927B751B0F0E1F052
:10178000660F771F881F991F1AF0BA95C9F714C002
:10179000B13091F00E946C0CB1E008950C946C0C87
:1017A000672F782F8827B85F39F0B93FCCF386953B
:1017B00077956795B395D9F73EF490958095709598
:1017C00061957F4F8F4F9F4F0895E89409C097FB15
:1017D0003EF490958095709561957F4F8F4F9F4F08
:1017E0009923A9F0F92F96E9BB279395F69587954C
:1017F00077956795B795F111F8CFFAF4BB0F11F40F
:1018000060FF1BC06F5F7F4F8F4F9F4F16C08823B5
:1018100011F096E911C0772321F09EE8872F762FEB
:1018200005C0662371F096E8862F70E060E02AF02C
:101830009A95660F771F881FDAF7880F9695879518
:1018400097F9089597F99F6780E870E060E0089540
:101850009FEF80EC089500240A94161617061806C8
:101860000906089500240A941216130614060506A4
:101870000895092E0394000C11F4882352F0BB0F35
:1018800040F4BF2B11F460FF04C06F5F7F4F8F4F98
:101890009F4F089557FD9058440F551F59F05F3FD3
:1018A00071F04795880F97FB991F61F09F3F79F082
:1018B00087950895121613061406551FF2CF469504
:1018C000F1DF08C0161617061806991FF1CF869586
:1018D0007105610508940895E894BB27662777276A
:1018E000CB0197F908950E94860C0C94390C0E9444
:1018F0002B0C38F00E94320C20F0952311F00C9440
:10190000220C0C94280C11240C946D0C0E944A0C8F
:1019100070F3959FC1F3950F50E0551F629FF00142
:10192000729FBB27F00DB11D639FAA27F00DB11D5B
:10193000AA1F649F6627B00DA11D661F829F2227E4
:10194000B00DA11D621F739FB00DA11D621F839F6B
:10195000A00D611D221F749F3327A00D611D231F41
:10196000849F600D211D822F762F6A2F11249F578F
:1019700050409AF0F1F088234AF0EE0FFF1FBB1F92
:10198000661F771F881F91505040A9F79E3F510551
:1019900080F00C94220C0C946D0C5F3FE4F3983EA5
:1019A000D4F3869577956795B795F795E7959F5FFB
:1019B000C1F7FE2B880F911D9695879597F908958D
:1019C0000E94330BB7FF0895821B930B0895EE0F0F
:1019D000FF1F0590F491E02D0994F894FFCF0705BF
:1019E0000700000000001F191000000000001F1F6A
:1019F0001F1F160202031F1F0F0703030203101805
:101A00001818001000001F171F1F1C1F1C1C0001AE
:101A1000010101030F1F000000001010181F00003B
:101A20000000F303530380034004B1038F03A303B7
:101A300000000000FB0553039A049904696E696372
:101A400069616E646F2E2E2E00416775613A2048E1
:101A5000756D653A2054656D3A00202020252020C0
:0C1A600020202025202020200043000032
:107E0000112484B714BE81FFF0D085E080938100F7
:107E100082E08093C00088E18093C10086E0809377
:107E2000C20080E18093C4008EE0C9D0259A86E02C
:107E300020E33CEF91E0309385002093840096BBD3
:107E4000B09BFECF1D9AA8958150A9F7CC24DD24C4
:107E500088248394B5E0AB2EA1E19A2EF3E0BF2EE7
:107E6000A2D0813461F49FD0082FAFD0023811F036
:107E7000013811F484E001C083E08DD089C08234E0
:107E800011F484E103C0853419F485E0A6D080C0E4
:107E9000853579F488D0E82EFF2485D0082F10E0AE
:107EA000102F00270E291F29000F111F8ED06801E7
:107EB0006FC0863521F484E090D080E0DECF843638
:107EC00009F040C070D06FD0082F6DD080E0C81688
:107ED00080E7D80618F4F601B7BEE895C0E0D1E017
:107EE00062D089930C17E1F7F0E0CF16F0E7DF06D8
:107EF00018F0F601B7BEE89568D007B600FCFDCFD4
:107F0000A601A0E0B1E02C9130E011968C91119780
:107F100090E0982F8827822B932B1296FA010C0160
:107F200087BEE89511244E5F5F4FF1E0A038BF0790
:107F300051F7F601A7BEE89507B600FCFDCF97BE46
:107F4000E89526C08437B1F42ED02DD0F82E2BD052
:107F50003CD0F601EF2C8F010F5F1F4F84911BD097
:107F6000EA94F801C1F70894C11CD11CFA94CF0C13
:107F7000D11C0EC0853739F428D08EE10CD085E9AC
:107F80000AD08FE07ACF813511F488E018D01DD067
:107F900080E101D065CF982F8091C00085FFFCCF94
:107FA0009093C60008958091C00087FFFCCF809118
:107FB000C00084FD01C0A8958091C6000895E0E648
:107FC000F0E098E1908380830895EDDF803219F02E
:107FD00088E0F5DFFFCF84E1DECF1F93182FE3DFCA
:107FE0001150E9F7F2DF1F91089580E0E8DFEE27F6
:047FF000FF270994CA
:027FFE00040479
:00000001FF
