:020000040000FA
:100000000C9462000C948A000C948A000C948A0070
:100010000C948A000C948A000C948A000C948A0038
:100020000C948A000C948A000C948A000C948A0028
:100030000C948A000C948A000C948A000C948A0018
:100040000C94C8030C948A000C9438040C94120489
:100050000C948A000C948A000C948A000C948A00F8
:100060000C948A000C948A000000000023002600F3
:10007000290000000000240027002A0000000000E2
:10008000250028002B0004040404040404040202D4
:100090000202020203030303030301020408102007
:1000A0004080010204081020010204081020000012
:1000B0000008000201000003040700000000000027
:1000C0000000AF0411241FBECFEFD8E0DEBFCDBFCC
:1000D00011E0A0E0B1E0EEE2FCE002C005900D927C
:1000E000AC32B107D9F721E0ACE2B1E001C01D921A
:1000F000AA3EB207E1F710E0C2E6D0E004C02197C3
:10010000FE010E940F06C136D107C9F70E94F9040B
:100110000C9415060C940000FC01538D448D252F82
:1001200030E0842F90E0821B930B541710F0CF9691
:10013000089501970895FC01918D828D981761F0C3
:10014000A28DAE0FBF2FB11D5D968C91928D9F5FDA
:100150009F73928F90E008958FEF9FEF0895FC01B9
:10016000918D828D981731F0828DE80FF11D858D6C
:1001700090E008958FEF9FEF0895FC01918D228DFF
:10018000892F90E0805C9F4F821B91098F73992784
:100190000895FC01A48DA80FB92FB11DA35ABF4F1C
:1001A0002C91848D90E001968F739927848FA68976
:1001B000B7892C93A089B1898C91837080648C93CA
:1001C000938D848D981306C00288F389E02D808179
:1001D0008F7D80830895EF92FF920F931F93CF93AB
:1001E000DF93EC0181E0888F9B8D8C8D98131AC072
:1001F000E889F989808185FF15C09FB7F894EE8959
:10020000FF896083E889F9898081837080648083B5
:100210009FBF81E090E0DF91CF911F910F91FF9000
:10022000EF900895F62E0B8D10E00F5F1F4F0F73A8
:100230001127E02E8C8D8E110CC00FB607FCFACF63
:10024000E889F989808185FFF5CFCE010E94C90038
:10025000F1CFEB8DEC0FFD2FF11DE35AFF4FF08234
:100260009FB7F8940B8FEA89FB8980818062CFCF9A
:10027000CF93DF93EC01888D8823B9F0AA89BB89DD
:10028000E889F9898C9185FD03C0808186FD0DC0C8
:100290000FB607FCF7CF8C9185FFF2CF808185FFE9
:1002A000EDCFCE010E94C900E9CFDF91CF91089533
:1002B00085E391E00E94BD0021E0892B09F420E054
:1002C000822F089580E090E0892B29F00E94580148
:1002D00081110C940000089590E0FC01E255FF4F5D
:1002E0002491FC01E656FF4F3491FC01EA57FF4F81
:1002F000E491EE23C9F0222339F0233001F1A8F470
:10030000213019F1223029F1F0E0EE0FFF1FE458FF
:10031000FF4FA591B4918FB7F894EC91611126C06D
:1003200030953E233C938FBF08952730A9F02830A5
:10033000C9F0243049F7809180008F7D03C08091FF
:1003400080008F7780938000DFCF84B58F7784BD66
:10035000DBCF84B58F7DFBCF8091B0008F7780930A
:10036000B000D2CF8091B0008F7DF9CF3E2BDACF95
:10037000CF93DF9390E0FC01E656FF4F24918A571C
:100380009F4FFC0184918823D1F090E0880F991F42
:10039000FC01EE58FF4FA591B491FC01E458FF4FCA
:1003A000C591D49161110EC09FB7F8948C91E22F42
:1003B000E0958E238C932881E223E8839FBFDF9111
:1003C000CF9108958FB7F894EC91E22BEC938FBF07
:1003D000F6CF3FB7F8948091310190913201A0910E
:1003E0003301B091340126B5A89B05C02F3F19F009
:1003F0000196A11DB11D3FBFBA2FA92F982F8827A5
:10040000BC01CD01620F711D811D911D42E0660F7F
:10041000771F881F991F4A95D1F708958F929F9251
:10042000AF92BF92CF92DF92EF92FF924B015C01AD
:100430000E94E9016B017C010E94E9016C197D09B0
:100440008E099F09683E734081059105A8F321E05C
:10045000821A9108A108B10888EEC80E83E0D81E60
:10046000E11CF11C81149104A104B10429F7FF904F
:10047000EF90DF90CF90BF90AF909F908F900895B6
:10048000AF92BF92CF92DF92EF92FF920F931F93A2
:10049000CF93DF936C017B018B01040F151FEB01E0
:1004A0005E01AE18BF08C017D10759F06991D60197
:1004B000ED91FC910190F081E02DC6010995892B09
:1004C00079F7C501DF91CF911F910F91FF90EF90C8
:1004D000DF90CF90BF90AF900895089590E080E0B6
:1004E0000895CF93DF93EC0160E08E810E946C0150
:1004F00061E08E810E946C0160E08E810E946C013F
:100500008BE891E00197F1F7DF91CF910895CF92B9
:10051000DF92EF92FF920F931F93CF93DF936C01C3
:100520007C0187E0E80EF11CD0E0C0E0062F10E06F
:10053000B8010C2E02C0759567950A94E2F76170B8
:10054000F70181917F010E946C012196C430D10591
:1005500079F7C601DF91CF911F910F91FF90EF9036
:10056000DF90CF900C947102CF92DF92EF92FF92C6
:100570000F931F93CF93DF93EC01F62E642F8C81A2
:100580000E946C018D818F3F19F060E00E946C0128
:100590000F2D10E08F8584FF25C06E0187E0C80E07
:1005A000D11CF12CE12CB8010E2C02C07595679579
:1005B0000A94E2F76170F60181916F010E946C016B
:1005C000FFEFEF1AFF0A88E0E816F10461F7CE01A9
:1005D000DF91CF911F910F91FF90EF90DF90CF901F
:1005E0000C947102B80184E0759567958A95E1F7DE
:1005F000CE010E9487026F2DCE01DF91CF911F9116
:100600000F91FF90EF90DF90CF900C94870240E025
:10061000682F82ED91E00C94B402CF93DF93823087
:1006200029F49091E10198609093E1018093E501B4
:100630001092E60180E48093E70180E18093E80175
:1006400080E58093E90161E08091D6010E94B801C4
:100650008091D7018F3F19F061E00E94B80161E0FD
:100660008091D8010E94B801C2EDD1E09E01225DC7
:1006700031408091E10184FD0BC084E090E021963F
:100680002817390744F461E08E810E94B801EECF4B
:1006900088E090E0F4CF8BE39DE00197F1F760E014
:1006A0008091D6010E946C0160E08091D8010E9487
:1006B0006C018091D7018F3F19F060E00E946C01BE
:1006C0008091E10184FD39C063E082ED91E00E94F8
:1006D0008702CBE4D6E4CE010197F1F763E082ED27
:1006E00091E00E9487022197F1F763E082ED91E0AB
:1006F0000E94870283E592E00197F1F762E082EDC4
:1007000091E00E9487028091E10180620E940703CC
:1007100084E08093E2018CE00E94070381E00E9464
:1007200007038BE39FE10197F1F782E08093E301F8
:1007300086E0DF91CF910C94070380620E9407034B
:100740008BE496E40197F1F78091E10180620E94C9
:10075000070383E592E00197F1F78091E101806260
:100760000E940703D0CF41E00E94B40281E090E0F4
:100770000895FB0101900020E9F73197AF01461B76
:10078000570BDC01ED91FC910280F381E02D09947F
:100790001F920F920FB60F9211242F933F938F93B6
:1007A0009F93AF93BF9380912D0190912E01A091C3
:1007B0002F01B091300130912C0123E0230F2D3710
:1007C00058F50196A11DB11D20932C0180932D0198
:1007D00090932E01A0932F01B093300180913101AD
:1007E00090913201A0913301B09134010196A11D85
:1007F000B11D8093310190933201A0933301B093E6
:100800003401BF91AF919F918F913F912F910F90A4
:100810000FBE0F901F90189526E8230F0296A11D7A
:10082000B11DD2CF1F920F920FB60F9211242F93AA
:100830003F934F935F936F937F938F939F93AF9368
:10084000BF93EF93FF9385E391E00E94C900FF916E
:10085000EF91BF91AF919F918F917F916F915F9138
:100860004F913F912F910F900FBE0F901F901895B1
:100870001F920F920FB60F9211242F938F939F9375
:10088000EF93FF93E0914501F09146018081E09163
:100890004B01F0914C0182FD1BC0908180914E0173
:1008A0008F5F8F7320914F01821741F0E0914E01CD
:1008B000F0E0EB5CFE4F958F80934E01FF91EF913E
:1008C0009F918F912F910F900FBE0F901F901895B1
:1008D0008081F4CFCF92DF92EF92FF920F931F931C
:1008E000E82FF92F05C0015011092109310961F1E3
:1008F000908196239417B9F305C00150110921097D
:10090000310911F1908196239413F7CFC12CD12C8A
:10091000E12CF12C0AC08FEFC81AD80AE80AF80AAD
:100920000C151D052E053F0579F08081862384175F
:1009300091F36C2D7D2D8E2D9F2D1F910F91FF908A
:10094000EF90DF90CF90089560E070E080E090E05D
:100950001F910F91FF90EF90DF90CF900895E5E306
:10096000F1E01382128288EE93E0A0E0B0E084838D
:100970009583A683B78384E091E09183808385EC9F
:1009800090E09587848784EC90E09787868780EC59
:1009900090E0918B808B81EC90E0938B828B82EC4A
:1009A00090E0958B848B86EC90E0978B868B118EF4
:1009B000128E138E148EE2EDF1E01382128286E124
:1009C00091E09183808387E084838FEF858386E045
:1009D000868385E0878384E0808783E0818782E067
:1009E00082871386148615861686178681E00C94F6
:1009F0000D03CF93DF93CDB7DEB7A1970FB6F89471
:100A0000DEBF0FBECDBF789484B5826084BD84B54F
:100A1000816084BD85B5826085BD85B5816085BDF9
:100A200080916E00816080936E00109281008091B1
:100A30008100826080938100809181008160809339
:100A40008100809180008160809380008091B1005E
:100A500084608093B1008091B00081608093B00089
:100A600080917A00846080937A0080917A0082601D
:100A700080937A0080917A00816080937A008091DF
:100A80007A00806880937A001092C10082E00E9410
:100A90000D0381E00E9407038BE39FE10197F1F7CB
:100AA00060E08EE00E94B80161E088E00E94B80139
:100AB00060E089E00E94B80119A27E0181E2E80E9F
:100AC000F11C20E835E240E050E06AE0862E912CEF
:100AD000A12CB12C6E01EDE1CE0ED11CCA01B901E1
:100AE000A50194010E94ED05605DF70162937F010D
:100AF000EC15FD0599F7BF0185E391E00E94B9036C
:100B00006EE171E085E391E00E94B90390E4992ED3
:100B100023EAE22E20E0F22E3FE8C32E30E0D32E6F
:100B200040E0A42E40E0B42E90927C0080917A00A8
:100B3000806480937A0080917A0086FDFCCF80915A
:100B400078009091790060E088E00E946C0164E098
:100B500070E080E090E00E940E0261E088E00E9478
:100B60006C016AE070E080E090E00E940E0260E0BC
:100B700088E00E946C01F7016491F6018491E82FEE
:100B8000F0E0EE0FFF1FE859FF4F8591949100E4CC
:100B900012E42FE030E0462F0E946A04E1E08091E9
:100BA000E5018111E0E0E195F0E0EE52FE4F84892D
:100BB00080680E94070361E271E082ED91E00E948B
:100BC000B903A114B10409F4AFCF0E9458018823DE
:100BD00009F4AACF0E940000A7CFA1E21A2EAA1BF7
:100BE000BB1BFD010DC0AA1FBB1FEE1FFF1FA217DD
:100BF000B307E407F50720F0A21BB30BE40BF50BDA
:100C0000661F771F881F991F1A9469F76095709562
:100C1000809590959B01AC01BD01CF010895EE0F29
:100C2000FF1F0590F491E02D0994F894FFCF000088
:100C30000000EB0040028C003801BD009B00AF00BB
:100C400000000000B30340026E026D020D0A00486E
:0A0C50006F6C61206D756E646F001B
:107E0000112484B714BE81FFF0D085E080938100F7
:107E100082E08093C00088E18093C10086E0809377
:107E2000C20080E18093C4008EE0C9D0259A86E02C
:107E300020E33CEF91E0309385002093840096BBD3
:107E4000B09BFECF1D9AA8958150A9F7CC24DD24C4
:107E500088248394B5E0AB2EA1E19A2EF3E0BF2EE7
:107E6000A2D0813461F49FD0082FAFD0023811F036
:107E7000013811F484E001C083E08DD089C08234E0
:107E800011F484E103C0853419F485E0A6D080C0E4
:107E9000853579F488D0E82EFF2485D0082F10E0AE
:107EA000102F00270E291F29000F111F8ED06801E7
:107EB0006FC0863521F484E090D080E0DECF843638
:107EC00009F040C070D06FD0082F6DD080E0C81688
:107ED00080E7D80618F4F601B7BEE895C0E0D1E017
:107EE00062D089930C17E1F7F0E0CF16F0E7DF06D8
:107EF00018F0F601B7BEE89568D007B600FCFDCFD4
:107F0000A601A0E0B1E02C9130E011968C91119780
:107F100090E0982F8827822B932B1296FA010C0160
:107F200087BEE89511244E5F5F4FF1E0A038BF0790
:107F300051F7F601A7BEE89507B600FCFDCF97BE46
:107F4000E89526C08437B1F42ED02DD0F82E2BD052
:107F50003CD0F601EF2C8F010F5F1F4F84911BD097
:107F6000EA94F801C1F70894C11CD11CFA94CF0C13
:107F7000D11C0EC0853739F428D08EE10CD085E9AC
:107F80000AD08FE07ACF813511F488E018D01DD067
:107F900080E101D065CF982F8091C00085FFFCCF94
:107FA0009093C60008958091C00087FFFCCF809118
:107FB000C00084FD01C0A8958091C6000895E0E648
:107FC000F0E098E1908380830895EDDF803219F02E
:107FD00088E0F5DFFFCF84E1DECF1F93182FE3DFCA
:107FE0001150E9F7F2DF1F91089580E0E8DFEE27F6
:047FF000FF270994CA
:027FFE00040479
:00000001FF
