:100000000C9462000C948A000C948A000C948A0070
:100010000C948A000C948A000C948A000C948A0038
:100020000C948A000C948A000C948A000C948A0028
:100030000C948A000C948A000C948A000C948A0018
:100040000C94AB050C948A000C941B060C94F505DB
:100050000C948A000C948A000C948A000C948A00F8
:100060000C948A000C948A000000000024002700F1
:100070002A0000000000250028002B0000000000DE
:1000800023002600290004040404040404040202DA
:100090000202020203030303030301020408102007
:1000A0004080010204081020010204081020000012
:1000B0000008000201000003040700000000000027
:1000C0000000920611241FBECFEFD8E0DEBFCDBFE7
:1000D00011E0A0E0B1E0E6E0F6E102C005900D928B
:1000E000A632B107D9F722E0A6E2B1E001C01D9225
:1000F000A132B207E1F710E0C2E6D0E004C02197D8
:10010000FE010E94FB0AC136D107C9F70E94DC0636
:100110000C94010B0C940000833081F028F48130A2
:1001200099F08230A9F008958730A9F08830C9F09D
:100130008430B1F4809180008F7D03C08091800075
:100140008F7780938000089584B58F7784BD08955C
:1001500084B58F7DFBCF8091B0008F778093B00006
:1001600008958091B0008F7DF9CFCF93DF93282F32
:1001700030E0F901E255FF4F8491F901E656FF4F57
:10018000D491F901EA57FF4FC491CC23A1F081111A
:100190000E948C00EC2FF0E0EE0FFF1FE458FF4FA1
:1001A000A591B491EC91ED2381E090E009F480E019
:1001B000DF91CF91089580E090E0FACF1F93CF9325
:1001C000DF93282F30E0F901E255FF4F8491F901C8
:1001D000E656FF4FD491F901EA57FF4FC491CC2363
:1001E000A9F0162F81110E948C00EC2FF0E0EE0F89
:1001F000FF1FEE58FF4FA591B4918FB7F894EC9183
:10020000111108C0D095DE23DC938FBFDF91CF9111
:100210001F910895DE2BF8CFCF93DF9390E0FC0180
:10022000E656FF4F24918A579F4FFC018491882303
:10023000D1F090E0880F991FFC01E859FF4FA5917C
:10024000B491FC01EE58FF4FC591D49161110EC0DD
:100250009FB7F8948C91E22FE0958E238C932881A0
:10026000E223E8839FBFDF91CF9108958FB7F89481
:10027000EC91E22BEC938FBFF6CF1F93CF93DF93DC
:10028000182FEB0161E00E940C01209739F460E027
:10029000812FDF91CF911F910C94DE00CF3FD105CC
:1002A00011F461E0F5CFE12FF0E0E255FF4FE4916A
:1002B000E33031F140F4E130B1F0E230E1F0C03848
:1002C000D1057CF7E4CFE73029F1E83059F1E4308B
:1002D000B1F780918000806280938000D0938B0082
:1002E000C0938A0004C084B5806884BDC7BDDF9117
:1002F000CF911F91089584B5806284BDC8BDF7CFAA
:1003000080918000806880938000D0938900C093A2
:100310008800EDCF8091B00080688093B000C093DA
:10032000B300E5CF8091B00080628093B000C093AD
:10033000B400DDCF3FB7F89480912B0190912C0150
:10034000A0912D01B0912E0126B5A89B05C02F3F8D
:1003500019F00196A11DB11D3FBFBA2FA92F982FEB
:100360008827BC01CD01620F711D811D911D42E0E6
:10037000660F771F881F991F4A95D1F708958F92AE
:100380009F92AF92BF92CF92DF92EF92FF924B017A
:100390005C010E949A016B017C010E949A016C1918
:1003A0007D098E099F09683E734081059105A8F378
:1003B00021E0821A9108A108B10888EEC80E83E0F6
:1003C000D81EE11CF11C81149104A104B10429F789
:1003D000FF90EF90DF90CF90BF90AF909F908F9065
:1003E00008954F925F926F927F928F929F92AF92F9
:1003F000BF92CF92DF92EF92FF920F931F93CF9312
:10040000DF932FB7F89480912F0190913001A09144
:100410003101B09132012FBF409148015091490103
:1004200060914A0170914B018C019D01041B150BD9
:10043000260B370B40914401509145014130510545
:1004400009F078C047EE53E060E070E0041715074C
:100450002607370708F45DC080934801909349014F
:10046000A0934A01B0934B0180E090E0A0ECBFE77D
:1004700080933B0190933C01A0933D01B0933E01DA
:1004800080933F0190934001A0934101B0934201BA
:1004900060E0809143010E94DE0061E080914301B1
:1004A0000E940C018091440190914501019709F04F
:1004B00046C062E170E080E090E00E94BF0160E031
:1004C000809143010E940C0161E0809143010E94F0
:1004D000DE00F8943DEFD32ED0E0C0E010E000E065
:1004E000F12CE12C0E949A01862E2D2D2170922E46
:1004F000A22E220FBB080E949A01C62EC8188AE5B8
:100500008C1528F581E090E0909347018093460197
:100510007894DF91CF911F910F91FF90EF90DF9032
:10052000CF90BF90AF909F908F907F906F905F9093
:100530004F9008954FEC57E060E070E087CF62E0A5
:1005400070E080E090E0B9CF8701D394CBCF809169
:1005500043010E94B5008A159B0569F2D7FC0FC0C4
:10056000992039F0EE0CFF1C2EE12C1510F4689444
:10057000E0F88FE1D81641F32FE3D216B1F08FE403
:10058000D812E3CF7894A12EBB24CD2EDD248C2F5E
:10059000800F8A0D8C0D8E151F0459F082E090E0BB
:1005A0009093470180934601B4CFE701F12CE12CF1
:1005B000CCCF8091440190914501019709F04CC046
:1005C0001127B80190E080E00E94F9092DEC3CEC85
:1005D0004CEC5DE30E94870A2B013C01B50190E0E1
:1005E00080E00E94F9099B01AC01C301B2010E94A5
:1005F000570960933F0170934001809341019093AC
:100600004201BE016F77772790E080E00E94F909F0
:100610002DEC3CEC4CEC5DE30E94870A4B015C0145
:10062000B60190E080E00E94F9099B01AC01C50190
:10063000B4010E945709C7FD0DC060933B01709340
:100640003C0180933D0190933E011092470110922E
:1006500046015FCF9058F1CFB80190E080E00E9452
:10066000F9092DEC3CEC4CEC5DE30E94870A6093A9
:100670003F01709340018093410190934201D7FF65
:1006800004C0DF77D195C195D109BE01DD0F880B7C
:10069000990B0E94FB092DEC3CEC4CEC5DE30E94B5
:1006A000870ACBCFAF92BF92CF92DF92EF92FF92A9
:1006B0000F931F93CF93DF936C017B018B01040F8A
:1006C000151FEB015E01AE18BF08C017D10759F026
:1006D0006991D601ED91FC910190F081E02DC60168
:1006E0000995892B79F7C501DF91CF911F910F9162
:1006F000FF90EF90DF90CF90BF90AF900895FC01F6
:10070000538D448D252F30E0842F90E0821B930B76
:10071000541710F0CF96089501970895FC01918D1C
:10072000828D981761F0A28DAE0FBF2FB11D5D961F
:100730008C91928D9F5F9F73928F90E008958FEFC1
:100740009FEF0895FC01918D828D981731F0828D75
:10075000E80FF11D858D90E008958FEF9FEF0895CC
:10076000FC01918D228D892F90E0805C9F4F821B30
:1007700091098F73992708958CE691E00E94B00348
:1007800021E0892B09F420E0822F089580E090E099
:10079000892B29F00E94BC0381110C94000008955C
:1007A000FC01A48DA80FB92FB11DA35ABF4F2C91E6
:1007B000848D90E001968F739927848FA689B789DD
:1007C0002C93A089B1898C91837080648C93938DD4
:1007D000848D981306C00288F389E02D80818F7D77
:1007E00080830895EF92FF920F931F93CF93DF932F
:1007F000EC0181E0888F9B8D8C8D98131AC0E8895D
:10080000F989808185FF15C09FB7F894EE89FF892B
:100810006083E889F98980818370806480839FBFC9
:1008200081E090E0DF91CF911F910F91FF90EF90C9
:100830000895F62E0B8D10E00F5F1F4F0F731127D9
:10084000E02E8C8D8E110CC00FB607FCFACFE88914
:10085000F989808185FFF5CFCE010E94D003F1CFC9
:10086000EB8DEC0FFD2FF11DE35AFF4FF0829FB788
:10087000F8940B8FEA89FB8980818062CFCFCF9378
:10088000DF93EC01888D8823B9F0AA89BB89E889B8
:10089000F9898C9185FD03C0808186FD0DC00FB65E
:1008A00007FCF7CF8C9185FFF2CF808185FFEDCFDC
:1008B000CE010E94D003E9CFDF91CF910895089532
:1008C00090E080E00895CF93DF93EC0160E08E81AB
:1008D0000E94DE0061E08E810E94DE0060E08E8179
:1008E0000E94DE008BE891E00197F1F7DF91CF9154
:1008F0000895CF92DF92EF92FF920F931F93CF93C1
:10090000DF936C017C0187E0E80EF11CD0E0C0E0D1
:10091000062F10E0B8010C2E02C0759567950A9459
:10092000E2F76170F70181917F010E94DE0021965C
:10093000C430D10579F7C601DF91CF911F910F9196
:10094000FF90EF90DF90CF900C946304CF92DF92F2
:10095000EF92FF920F931F93CF93DF93EC01F62E4C
:10096000642F8C810E94DE008D818F3F19F060E042
:100970000E94DE000F2D10E08F8584FF25C06E01E0
:1009800087E0C80ED11CF12CE12CB8010E2C02C05E
:10099000759567950A94E2F76170F60181916F0190
:1009A0000E94DE00FFEFEF1AFF0A88E0E816F1046C
:1009B00061F7CE01DF91CF911F910F91FF90EF90E2
:1009C000DF90CF900C946304B80184E0759567952F
:1009D0008A95E1F7CE010E9479046F2DCE01DF9157
:1009E000CF911F910F91FF90EF90DF90CF900C94DB
:1009F000790440E0682F89E092E00C94A604CF933C
:100A0000DF93823029F49091180298609093180235
:100A100080931C0210921D0280E480931E0280E1EC
:100A200080931F0280E58093200261E080910D0297
:100A30000E940C0180910E028F3F19F061E00E942C
:100A40000C0161E080910F020E940C01C9E0D2E02C
:100A50009E01295032408091180284FD0BC084E031
:100A600090E021962817390744F461E08E810E94B6
:100A70000C01EECF88E090E0F4CF8BE39DE001978E
:100A8000F1F760E080910D020E94DE0060E080914D
:100A90000F020E94DE0080910E028F3F19F060E08D
:100AA0000E94DE008091180284FD39C063E089E075
:100AB00092E00E947904CBE4D6E4CE010197F1F7ED
:100AC00063E089E092E00E9479042197F1F763E006
:100AD00089E092E00E94790483E592E00197F1F7C2
:100AE00062E089E092E00E947904809118028062BD
:100AF0000E94F90484E0809319028CE00E94F904BA
:100B000081E00E94F9048BE39FE10197F1F782E015
:100B100080931A0286E0DF91CF910C94F9048062F1
:100B20000E94F9048BE496E40197F1F78091180292
:100B300080620E94F90483E592E00197F1F78091C9
:100B4000180280620E94F904D0CF41E00E94A604FE
:100B500081E090E008951F920F920FB60F9211243A
:100B60002F933F938F939F93AF93BF9380912F01C8
:100B700090913001A0913101B091320130912A0160
:100B800023E0230F2D3758F50196A11DB11D2093A9
:100B90002A0180932F0190933001A0933101B093EB
:100BA000320180912B0190912C01A0912D01B091E7
:100BB0002E010196A11DB11D80932B0190932C0154
:100BC000A0932D01B0932E01BF91AF919F918F9172
:100BD0003F912F910F900FBE0F901F90189526E810
:100BE000230F0296A11DB11DD2CF1F920F920FB6F7
:100BF0000F9211242F933F934F935F936F937F93A3
:100C00008F939F93AF93BF93EF93FF938CE691E005
:100C10000E94D003FF91EF91BF91AF919F918F916F
:100C20007F916F915F914F913F912F910F900FBEE8
:100C30000F901F9018951F920F920FB60F921124CC
:100C40002F938F939F93EF93FF93E0917C01F0910B
:100C50007D018081E0918201F091830182FD1BC0C2
:100C60009081809185018F5F8F732091860182171B
:100C700041F0E0918501F0E0E459FE4F958F8093BB
:100C80008501FF91EF919F918F912F910F900FBE52
:100C90000F901F9018958081F4CFCF92DF92EF9242
:100CA000FF920F931F93E82FF92F05C001501109F0
:100CB0002109310961F1908196239417B9F305C098
:100CC000015011092109310911F1908196239413E2
:100CD000F7CFC12CD12CE12CF12C0AC08FEFC81A10
:100CE000D80AE80AF80A0C151D052E053F0579F00B
:100CF00080818623841791F36C2D7D2D8E2D9F2D61
:100D00001F910F91FF90EF90DF90CF90089560E0DA
:100D100070E080E090E01F910F91FF90EF90DF90E6
:100D2000CF900895ECE6F1E01382128288EE93E012
:100D3000A0E0B0E084839583A683B7838CE091E044
:100D40009183808385EC90E09587848784EC90E0A4
:100D50009787868780EC90E0918B808B81EC90E088
:100D6000938B828B82EC90E0958B848B86EC90E069
:100D7000978B868B118E128E138E148EE9E0F2E023
:100D8000138212828EE191E09183808387E08483D5
:100D90008FEF858386E0868385E0878384E0808784
:100DA00083E0818782E08287138614861586168603
:100DB000178681E00C94FF04789484B5826084BD2A
:100DC00084B5816084BD85B5826085BD85B581604F
:100DD00085BD80916E00816080936E0010928100CD
:100DE0008091810082608093810080918100816088
:100DF0008093810080918000816080938000809149
:100E0000B10084608093B1008091B00081608093D4
:100E1000B00080917A00846080937A0080917A009B
:100E2000826080937A0080917A00816080937A005A
:100E300080917A00806880937A001092C1008AE0E5
:100E40008093430181E090E09093450180934401B9
:100E50002FB7F89480912F0190913001A09131012A
:100E6000B09132012FBF885B9B40A109B1098093EB
:100E7000480190934901A0934A01B0934B018CE53E
:100E80009FE8A2ECBDEB80934C0190934D01A093A1
:100E90004E01B0934F0186E696E6A3E0B2E480935C
:100EA000500190935101A0935201B093530180E0FF
:100EB00090E0A2E6B2EC8093640190936501A09368
:100EC0006601B093670183E393EDA8E7B5E48093EF
:100ED000680190936901A0936A01B0936B018CE063
:100EE00092E0ABE2BDEB8093540190935501A09347
:100EF0005601B09357018BE390EDABEBB1E48093D7
:100F0000580190935901A0935A01B0935B018AE96B
:100F100099E9ABE9B2EC80935C0190935D01A093F9
:100F20005E01B0935F0180E090ECA3E1B5E48093B3
:100F3000600190936101A0936201B093630160E04E
:100F40008EE00E940C0161E088E00E940C0160E0EC
:100F500089E00E940C0161E08BE00E940C0160E0DE
:100F600082E00E940C0161E08BE00E940C0161E0D4
:100F700080E10E940C0161E081E10E940C0182E0AD
:100F80000E94FF0480E40E94F904C0E0D1E008E080
:100F900011E0699189E092E00E94A5050C171D07F8
:100FA000C1F761E08FE00E940C01E0917C01F091BB
:100FB0007D0182E08083E0917801F09179011082D7
:100FC000E0917A01F0917B018FEC80831092840193
:100FD000E0918001F091810186E08083E0917E01C3
:100FE000F0917F01808180618083E0917E01F091AA
:100FF0007F01808188608083E0917E01F0917F0194
:10100000808180688083E0917E01F0917F01808102
:101010008F7D808394EB492E512C612C712C20E024
:10102000222E20E0322E60E088E00E94DE0064E0A4
:1010300070E080E090E00E94BF0161E088E00E94E3
:10104000DE006AE070E080E090E00E94BF0160E0B6
:1010500088E00E94DE00E3EAF0E06491EFE8F0E06F
:101060008491E82FF0E0EE0FFF1FE458FF4F8591C9
:10107000949100E412E42FE030E0462F0E944D06E8
:101080004B015C0181149104A104B10439F0FFEF1C
:101090008F1A9F0AAF0ABF0A8FE0B822E0E4E093FC
:1010A0007C0080917A00806480937A0080917A003D
:1010B00086FDFCCFA0917800B091790024E630E065
:1010C0000E94F40A2FEF33E040E050E00E9406094E
:1010D00089010E94F1018091460190914701019799
:1010E00011F40E94F10160913B0170913C018091EB
:1010F0003D0190913E010E94C309EB018BE00E94EB
:10110000B5006C0182E00E94B500E0902601F090ED
:1011100027010233110504F5C501B4010E94FB0942
:101120002DEB37E346E855E30E94870A20E030E0E4
:1011300040E05FE30E94870A20E03CEF45E057E48F
:101140000E94870A0E94C3096F3071052CF46FEF6B
:1011500070E080E10E943D016F970CF452C0CA9488
:10116000CD2861F480912801909129018430910566
:101170002CF4019690932901809328016FEF70E081
:101180008FE00E943D01EF2829F5C0912601D09102
:101190002701C53BD105F4F420E437E0DE010E94CD
:1011A000F40AA30192010E940609CA01B901605E16
:1011B0007D4F8F4F9F4F8BE00E943D016FE070E0AD
:1011C00080E090E00E94BF012196D0932701C09358
:1011D0002601DBCF8091280190912901049729F401
:1011E0006FEF70E081E10E943D012114310409F4A8
:1011F0001ACF0E94BC03882309F415CF0E94000077
:1012000012CF1092290110922801EFCF052E97FBE3
:101210001EF400940E941D0957FD07D00E94250965
:1012200007FC03D04EF40C941D0950954095309561
:1012300021953F4F4F4F5F4F089590958095709542
:1012400061957F4F8F4F9F4F0895A1E21A2EAA1BE1
:10125000BB1BFD010DC0AA1FBB1FEE1FFF1FA21766
:10126000B307E407F50720F0A21BB30BE40BF50B63
:10127000661F771F881F991F1A9469F760957095EC
:10128000809590959B01AC01BD01CF010895A29F6F
:10129000B001B39FC001A39F700D811D1124911D4A
:1012A000B29F700D811D1124911D08955058BB27C8
:1012B000AA270E946E090C944D0A0E943F0A38F03A
:1012C0000E94460A20F039F49F3F19F426F40C944A
:1012D0003C0A0EF4E095E7FB0C94360AE92F0E94D5
:1012E0005E0A58F3BA17620773078407950720F060
:1012F00079F4A6F50C94800A0EF4E0950B2EBA2F23
:10130000A02D0B01B90190010C01CA01A00111240B
:10131000FF27591B99F0593F50F4503E68F11A16B7
:10132000F040A22F232F342F4427585FF3CF469548
:1013300037952795A795F0405395C9F77EF41F166A
:10134000BA0B620B730B840BBAF09150A1F0FF0F34
:10135000BB1F661F771F881FC2F70EC0BA0F621F20
:10136000731F841F48F4879577956795B795F79510
:101370009E3F08F0B0CF9395880F08F09927EE0FA5
:101380009795879508950E94CA096894B1110C94A5
:10139000810A08950E94660A88F09F5798F0B92F35
:1013A0009927B751B0F0E1F0660F771F881F991F9A
:1013B0001AF0BA95C9F714C0B13091F00E94800AB2
:1013C000B1E008950C94800A672F782F8827B85FC2
:1013D00039F0B93FCCF3869577956795B395D9F7F2
:1013E0003EF490958095709561957F4F8F4F9F4FFC
:1013F0000895E89409C097FB3EF490958095709508
:1014000061957F4F8F4F9F4F9923A9F0F92F96E950
:10141000BB279395F695879577956795B795F111C5
:10142000F8CFFAF4BB0F11F460FF1BC06F5F7F4F62
:101430008F4F9F4F16C0882311F096E911C0772374
:1014400021F09EE8872F762F05C0662371F096E87D
:10145000862F70E060E02AF09A95660F771F881F4C
:10146000DAF7880F9695879597F9089597F99F670A
:1014700080E870E060E008959FEF80EC089500241C
:101480000A941616170618060906089500240A94E9
:1014900012161306140605060895092E0394000C6F
:1014A00011F4882352F0BB0F40F4BF2B11F460FFFE
:1014B00004C06F5F7F4F8F4F9F4F089557FD905827
:1014C000440F551F59F05F3F71F04795880F97FB08
:1014D000991F61F09F3F79F08795089512161306C2
:1014E0001406551FF2CF4695F1DF08C016161706F1
:1014F0001806991FF1CF8695710561050894089526
:10150000E894BB2766277727CB0197F908950E94B7
:101510009A0A0C944D0A0E943F0A38F00E94460A2B
:1015200020F0952311F00C94360A0C943C0A1124F7
:101530000C94810A0E945E0A70F3959FC1F3950F87
:1015400050E0551F629FF001729FBB27F00DB11D47
:10155000639FAA27F00DB11DAA1F649F6627B00DD7
:10156000A11D661F829F2227B00DA11D621F739FC0
:10157000B00DA11D621F839FA00D611D221F749FCE
:101580003327A00D611D231F849F600D211D822F15
:10159000762F6A2F11249F5750409AF0F1F088233C
:1015A0004AF0EE0FFF1FBB1F661F771F881F915069
:1015B0005040A9F79E3F510580F00C94360A0C94D8
:1015C000810A5F3FE4F3983ED4F38695779567955B
:1015D000B795F795E7959F5FC1F7FE2B880F911D93
:1015E0009695879597F908950E944709B7FF089542
:1015F000821B930B0895EE0FFF1F0590F491E02DD1
:061600000994F894FFCFED
:10160600070507000000000000000000F203520377
:101616007F033F04B0038E03A20300000000A5056C
:06162600520360045F04A2
:00000001FF
